:100000000C9450000C946D000C946D000C946D00D9
:100010000C946D000C946D000C946D000C946D00AC
:100020000C946D000C946D000C946D000C946D009C
:100030000C946D000C946D000C946D000C946D008C
:100040000C946D000C946D000C946D000C946D007C
:100050000C946D000C946D000C946D000C946D006C
:100060000C946D000C946D000C946D000C946D005C
:100070000C946D000C94F6000C946D000C946D00C3
:100080000C946D000C946D000C946D000C946D003C
:100090000C946D000C94EA010C94E9010C946D0031
:1000A00011241FBECFEFCDBFDFE3DEBF18E2A0E01B
:1000B000B8E2E3EDFAE002C005900D92A430B1077A
:1000C000D9F729E2A4E0B8E201C01D92AD32B2072F
:1000D000E1F70E9442010C944C050C94000080E072
:1000E000089582E08093890080E00895E0E1F4E0E3
:1000F000808188608193E83184E0F807C9F7E0E304
:10010000F4E0808188608193E83384E0F807C9F7E0
:10011000E0E5F4E0808188608193E83584E0F807C9
:10012000C9F708950898009A0C94BE000598E5E177
:10013000F4E08081886080830C98049A0E98069A77
:100140000F98079A0C94D6000E9476004B9A439A17
:10015000AD9AA59AA698E6EBF4E08081886080834A
:100160000E94CE000E9492000E9496000E94DC0134
:100170000E946F000E94DA010C947100E0E0FAE046
:1001800084E090E080A791A783E1818381E082836E
:1001900087E090E086A397A380E0089541E068EDB2
:1001A00081E690E00E947D0280E00895E0ECF8E0B6
:1001B00083E2808384E0818380E00895E0912A29AE
:1001C000F0912B29819199E2E832F90711F4E8EADC
:1001D000F8E2E0932A29F0932B292FB7F894909115
:1001E0002C29915090932C292FBF08958F938FB76E
:1001F0008F938091A9048093212886FF09C0809164
:10020000202881608093202880E48093A904B59AF7
:100210008F918FBF8F9118959091C3089093C308C9
:100220001092200A1092210A91E09093000A809384
:10023000C4088091C30887FFFCCF1092000A08957C
:100240000F931F93CF93DF93182FC8E0D8E200E0FD
:10025000011305C0DF91CF911F910F9108958981FE
:100260000E940C0188810E940C018A810E940C016D
:100270000F5F2396EDCF8BE08093B60483E08093ED
:1002800050000895CDB7DEB76E97CDBFDEBF0E9498
:10029000A4000E943B010E9423028CE99AE40E9480
:1002A0005A02662463948FECC82E8AE4D82ECE01BD
:1002B00001965C0198EAE92E98E2F92E8091960A5F
:1002C00080FFFCCF9FB7F89480912C299FBF60924C
:1002D000960A883209F05BC0AD9A8EEB9AE40E94D0
:1002E0005A020E94DE00782E08E018E282EC9AE4BE
:1002F0000E945A0248010F5F1F4F0E94DE00F40166
:100300008083F8E200321F0789F784EC9AE40E94A8
:100310005A020E94DE008093062884EC9AE40E9430
:100320005A020E94DE008093072886EC9AE40E941D
:100330005A020E94DE008093042886EC9AE40E9410
:100340005A020E94DE00809305280E94DE0083305E
:1003500081F488EC9AE40E945A0282E0781209C083
:100360008AEC9AE40E945A028091032890E00E944D
:1003700020018FB7F894E0922829F0922929E09281
:100380002A29F0922B2910922C298FBF97CF1F92E8
:100390008F93DF92CF92BF92AF920E948102C501EC
:1003A0000E945A02AD980F900F900F900F900F90EF
:1003B0000F90DFCF80E00895E0ECF1E080EE8787DA
:1003C00089E086878AE9858781E48487808380E065
:1003D000089518951F921FB61F9211242F933F93D3
:1003E0004F938F939F93EF93FF9380916008E091D9
:1003F0002829F091292980832091282930912929C1
:10040000C901019649E22732340711F488EA98E2DB
:1004100080932829909329299FB7F89480912C29BB
:100420008F5F80932C299FBF10929A0A10929B0A8B
:10043000FF91EF919F918F914F913F912F911F903D
:100440001FBE1F901895E0E6F8E08BE591E08087ED
:10045000918780E8858380EC868383E08783E0E270
:10046000F4E080818160808380818D7F8083A0E043
:10047000B4E08C9184608C93808184608083E0E818
:10048000F1E089E4808B81E085AB82A7E0E9FAE0C6
:1004900081E4808386E1818381E5848380E090E844
:1004A0008487958708959091640895FFFCCF809389
:1004B00062080895EF92FF920F931F93CF93DF93FB
:1004C000EC017C0100E010E0FE0101900020E9F762
:1004D0003197EC1BFD0B0E171F0738F0DF91CF9102
:1004E0001F910F91FF90EF900895F70181917F0187
:1004F0000E9453020F5F1F4FE7CFFC0164BF408390
:100500000895AEE0B0E0E7E8F2E00C9429050D892B
:100510001E8986E08C8309831A838FEF9FE78D8382
:100520009E83AE01475E5F4F6F89788DCE01019645
:100530000E94A4022F813885020F131FF801108238
:100540002E96E4E00C944205AFE0B0E0EAEAF2E077
:100550000C941B057C013B018A01DC0116961D925F
:100560001C92179713968C9181FFBEC19AE0292E99
:10057000FE0131964F01D70113969C91F30193FD33
:10058000859193FF81913F01882309F444C185320D
:1005900039F493FD859193FF81913F01853229F4D0
:1005A000B70190E00E948D04E6CFB12C412C512C74
:1005B000BFE1B51538F08B3209F188F4803201F1D2
:1005C000833221F157FC3AC020ED280F2A3040F544
:1005D00056FE1FC0B29C200D1124B22E06C08D32D3
:1005E00091F0803379F7689450F8F30193FD859189
:1005F00093FF81913F018111DBCF20C0689451F8B6
:10060000689452F8F2CF689453F8EFCF689454F896
:10061000ECCF429C200D1124422E689455F8E5CF72
:100620008E3229F456FCF7C0689456F8DECF8C362B
:1006300019F4689457F8D9CF8836B9F2982F9F7D6E
:1006400095549330C0F0833681F18337A1F183351F
:1006500009F05BC0D801CD90DD908D016B2D70E06D
:1006600056FC02C06FEF7FEFC6010E9477045C0169
:10067000689457F80AC00C5F1F4FEFE3E983AA2480
:10068000A394B12C6401E89457F853FE29C0342C8C
:10069000A114B10451F5332009F46DCFB70180E204
:1006A00090E00E948D043A94F6CFD8018C91898312
:1006B0000E5F1F4FE4CFF801C190D1908F016B2DD9
:1006C00070E056FC02C06FEF7FEFC6010E9482040B
:1006D0005C01D9CFB70180E290E00E948D044A947A
:1006E0004A141B0409F0B0F7D2CFF60157FC8591EC
:1006F00057FE81916F01B70190E00E948D04311087
:100700003A94B1E0AB1AB108C3CF843619F08936F8
:1007100009F071C0F80157FE67C061917191819134
:1007200091918F01E52DEF76DE2E97FF09C0909510
:100730008095709561957F4F8F4F9F4F6894D7F844
:100740002AE030E0A4010E94BD04C82EC818AC2CD9
:100750005D2CD6FE0CC0E89450F8CB1440F4D4FEC7
:1007600005C0D2FC03C05D2D5E7E552EAB2C54FE21
:1007700093C0FE01EC0DF11D8081803309F085C02E
:10078000652D697E562E752D7870372E53FC93C0DB
:1007900050FE8DC0BC2CA41410F4B40CBA1854FE36
:1007A00090C0B70180E390E00E948D0452FE07C024
:1007B00088E751FC88E590E0B7010E948D04CB14D6
:1007C00008F48BC0CA94D12C8FEFC81AD80AC80C71
:1007D000D91CD6018E916D01B70190E00E948D0465
:1007E0008C149D04B1F757CF61917191072E000CC5
:1007F000880B990B96CFD52CE894D4F82AE085374E
:1008000029F1F52DF97FDF2E8037A1F058F48835D6
:10081000A1F08F36D1F0F701868197812F96E2E122
:100820000C9434058837B9F7D4FE02C06894D2F826
:1008300020E10CC06894D4F8F7CF54FE03C02F2FEA
:100840002660D22E20E132E002C028E030E0F8013C
:10085000D7FE15C041915191619171914C875D878F
:100860006E877F878F01A4016C857D858E859F852E
:100870000E94BD04C82EC818E894D7F868CF8191AB
:100880009191AC0170E060E0E9CF52FC02C0A3940A
:100890007ACFA394A39477CF852D867809F473CF6C
:1008A000F6CFB70180E290E00E948D04A394A414D7
:1008B000C0F3312C74CF342C3A18A41408F46FCF41
:1008C000F8CF852D867809F47ACF8BE251FE80E24D
:1008D00057FC8DE2B70190E070CFB70180E390E064
:1008E0000E948D04BA946BCF8FEF9FEF97CFFC01DE
:1008F0000590615070400110D8F7809590958E0F4B
:100900009F1F0895FC016150704001900110D8F7BD
:10091000809590958E0F9F1F08950F931F93CF93EF
:10092000DF93182F092FEB018B8181FD09C01FEF89
:100930000FEF812F902FDF91CF911F910F9108958D
:1009400082FF14C02E813F818C819D812817390739
:100950003CF4E881F981CF01019688839983108363
:100960008E819F8101968E839F83E3CFE885F985F1
:10097000812F0995892BA1F3DACFFA01AA27283014
:1009800051F1203181F1E8946F936E7F6E5F7F4F5C
:100990008F4F9F4FAF4FB1E03ED0B4E03CD0670FD8
:1009A000781F891F9A1FA11D680F791F8A1F911D2B
:1009B000A11D6A0F711D811D911DA11D20D009F47B
:1009C00068943F912AE0269F11243019305D3193BD
:1009D000DEF6CF010895462F4770405D4193B3E0A6
:1009E0000FD0C9F7F6CF462F4F70405D4A3318F04D
:1009F000495D31FD4052419302D0A9F7EACFB4E0FE
:100A0000A6959795879577956795BA95C9F70097B5
:100A10006105710508959B01AC010A2E0694579556
:100A2000479537952795BA95C9F7620F731F841FAD
:100A3000951FA01D08952F923F924F925F926F9243
:100A40007F928F929F92AF92BF92CF92DF92EF925E
:100A5000FF920F931F93CF93DF93CDB7DEB7CA1BDF
:100A6000DB0BCDBFDEBF09942A88398848885F84B4
:100A70006E847D848C849B84AA84B984C884DF803E
:100A8000EE80FD800C811B81AA81B981CE0FD11D22
:0C0A9000CDBFDEBFED010895F894FFCF4C
:100A9C0054797065204F4E2F4F464620746F20635B
:100AAC006F6E74726F6C20746865204C45442E0D0B
:100ABC000A00533236002A002B002D004500446EEC
:070ACC00650A0043256400E8
:040AD3000014010802
:00000001FF
