:100000000C9450000C946D000C946D000C946D00D9
:100010000C946D000C946D000C946D000C946D00AC
:100020000C946D000C946D000C946D000C946D009C
:100030000C946D000C946D000C946D000C946D008C
:100040000C946D000C946D000C946D000C946D007C
:100050000C946D000C946D000C946D000C946D006C
:100060000C946D000C946D000C946D000C946D005C
:100070000C946D000C940D010C946D000C946D00AB
:100080000C946D000C946D000C946D000C946D003C
:100090000C946D000C9409020C9408020C946D00F1
:1000A00011241FBECFEFCDBFDFE3DEBF18E2A0E01B
:1000B000B8E2E1E1FBE002C005900D92A430B10787
:1000C000D9F729E2A4E0B8E201C01D92A932B20733
:1000D000E1F70E945C010C946B050C94000080E039
:1000E000089582E08093890080E00895E0E1F4E0E3
:1000F000808188608193E83184E0F807C9F7E0E304
:10010000F4E0808188608193E83384E0F807C9F7E0
:10011000E0E5F4E0808188608193E83584E0F807C9
:10012000C9F70895E0E8FAE087E181831286138633
:1001300087E094E08487958780E0089581E080934C
:10014000E50508980998AC98009A019AA49A0E942B
:10015000D4000C9492000598E5E1F4E08081886079
:1001600080830C98049A0E98069A0F98079A0C941C
:10017000ED000E947600AD9AA59AA698E6EBF4E011
:100180008081886080838FEF88B98CB90E94E500F8
:100190000E949E000E94AB000E94FB010E946F0023
:1001A0000E94F9010C947100E0E0FAE010A611A69B
:1001B00012A613A683E3818312828CE491E086A3C6
:1001C00097A381E0808380E0089541E068ED81E6B7
:1001D00090E00E949C0280E00895E0ECF8E083E269
:1001E000808384E0818380E00895E0912629F09166
:1001F0002729819199E2E432F90711F4E4EAF8E25F
:10020000E0932629F09327292FB7F8949091282975
:100210009150909328292FBF08958F938FB78F9374
:100220008091A90480931D2886FF09C080911C2815
:10023000816080931C2880E48093A904B59A8F91F3
:100240008FBF8F9118959091C3089093C308109217
:100250008A0A10928B0AF8948093C40881E48093F0
:10026000800A78948091C30887FFFCCF80E4809354
:10027000800A08950F931F93CF93DF93182FC4E044
:10028000D8E200E0011305C0DF91CF911F910F91DB
:10029000089589810E94230188810E9423018A8117
:1002A0000E9423010F5F2396EDCF8BE08093B6046D
:1002B00083E0809350000895CDB7DEB76E97CDBF31
:1002C000DEBF0E94B9000E9455010E9442028AEDE1
:1002D0009AE40E9479027894662463948DE0C82E93
:1002E0008BE4D82ECE0101965C0194EAE92E98E2C7
:1002F000F92E8091960A80FFFCCF9FB7F8948091E9
:1003000028299FBF6092960A8E3109F05FC0AD9A8E
:100310008CEF9AE40E9479020E94F500782E04E0A6
:1003200018E280E09BE40E94790248010F5F1F4FB2
:100330000E94F500F4018083F8E20C311F0789F771
:1003400082E09BE40E9479020E94F50090E0809395
:10035000280A9093290A82E09BE40E9479020E9475
:10036000F50090E080932A0A90932B0A84E09BE4A6
:100370000E9479020E94F50089B984E09BE40E9402
:1003800079020E94F5008DB90E94F500833081F456
:1003900086E09BE40E94790282E0781209C088E03E
:1003A0009BE40E9479028091032890E00E943A0128
:1003B0008FB7F894E0922429F0922529E09226291B
:1003C000F0922729109228298FBF93CF1F928F93E5
:1003D000DF92CF92BF92AF920E94A002C5010E940D
:1003E0007902AD980F900F900F900F900F900F9093
:1003F000DFCF80E00895E0ECF1E080EE878789E0D0
:1004000086878CE9858781E48487808380E00895EE
:1004100018951F921FB61F9211242F933F934F934D
:100420008F939F93EF93FF9380916008E09124292D
:10043000F091252980832091242930912529C90113
:10044000019649E22332340711F484EA98E280935A
:100450002429909325299FB7F894809128298F5FAC
:10046000809328299FBF10929A0A10929B0AFF91AD
:10047000EF919F918F914F913F912F911F901FBEB0
:100480001F901895E0E6F8E08BE591E08087918772
:1004900080E8858380EC868383E08783E0E2F4E074
:1004A00080818160808380818D7F8083A0E0B4E043
:1004B0008C9184608C93808184608083E0E8F1E09B
:1004C00089E4808B81E085AB82A7E0E9FAE081E4F2
:1004D000808386E1818381E5848380E090E884875E
:1004E000958708959091640895FFFCCF80936208EA
:1004F0000895EF92FF920F931F93CF93DF93EC0138
:100500007C0100E010E0FE0101900020E9F7319746
:10051000EC1BFD0B0E171F0738F0DF91CF911F91D9
:100520000F91FF90EF900895F70181917F010E9454
:1005300072020F5F1F4FE7CFFC0164BF4083089535
:10054000AEE0B0E0E6EAF2E00C9448050D891E89C1
:1005500086E08C8309831A838FEF9FE78D839E83C8
:10056000AE01475E5F4F6F89788DCE0101960E9484
:10057000C3022F813885020F131FF80110822E96B7
:10058000E4E00C946105AFE0B0E0E9ECF2E00C943B
:100590003A057C013B018A01DC0116961D921C92F2
:1005A000179713968C9181FFBEC19AE0292EFE0108
:1005B00031964F01D70113969C91F30193FD8591DC
:1005C00093FF81913F01882309F444C1853239F4B6
:1005D00093FD859193FF81913F01853229F4B70105
:1005E00090E00E94AC04E6CFB12C412C512CBFE12D
:1005F000B51538F08B3209F188F4803201F183327D
:1006000021F157FC3AC020ED280F2A3040F556FE64
:100610001FC0B29C200D1124B22E06C08D3291F065
:10062000803379F7689450F8F30193FD859193FF37
:1006300081913F018111DBCF20C0689451F868940B
:1006400052F8F2CF689453F8EFCF689454F8ECCF97
:10065000429C200D1124422E689455F8E5CF8E322D
:1006600029F456FCF7C0689456F8DECF8C3619F49E
:10067000689457F8D9CF8836B9F2982F9F7D955452
:100680009330C0F0833681F18337A1F1833509F0CF
:100690005BC0D801CD90DD908D016B2D70E056FCD4
:1006A00002C06FEF7FEFC6010E9496045C01689460
:1006B00057F80AC00C5F1F4FEFE3E983AA24A39405
:1006C000B12C6401E89457F853FE29C0342CA114CE
:1006D000B10451F5332009F46DCFB70180E290E009
:1006E0000E94AC043A94F6CFD8018C9189830E5FB6
:1006F0001F4FE4CFF801C190D1908F016B2D70E0B6
:1007000056FC02C06FEF7FEFC6010E94A1045C019E
:10071000D9CFB70180E290E00E94AC044A944A1419
:100720001B0409F0B0F7D2CFF60157FC859157FEB4
:1007300081916F01B70190E00E94AC0431103A94AE
:10074000B1E0AB1AB108C3CF843619F0893609F08D
:1007500071C0F80157FE67C06191719181919191CB
:100760008F01E52DEF76DE2E97FF09C090958095DD
:10077000709561957F4F8F4F9F4F6894D7F82AE00F
:1007800030E0A4010E94DC04C82EC818AC2C5D2CFB
:10079000D6FE0CC0E89450F8CB1440F4D4FE05C04B
:1007A000D2FC03C05D2D5E7E552EAB2C54FE93C053
:1007B000FE01EC0DF11D8081803309F085C0652DAF
:1007C000697E562E752D7870372E53FC93C050FEDF
:1007D0008DC0BC2CA41410F4B40CBA1854FE90C0F4
:1007E000B70180E390E00E94AC0452FE07C088E7A6
:1007F00051FC88E590E0B7010E94AC04CB1408F4EA
:100800008BC0CA94D12C8FEFC81AD80AC80CD91C37
:10081000D6018E916D01B70190E00E94AC048C145A
:100820009D04B1F757CF61917191072E000C880B91
:10083000990B96CFD52CE894D4F82AE0853729F186
:10084000F52DF97FDF2E8037A1F058F48835A1F01F
:100850008F36D1F0F701868197812F96E2E10C94D3
:1008600053058837B9F7D4FE02C06894D2F820E166
:100870000CC06894D4F8F7CF54FE03C02F2F266025
:10088000D22E20E132E002C028E030E0F801D7FEAD
:1008900015C041915191619171914C875D876E872F
:1008A0007F878F01A4016C857D858E859F850E9441
:1008B000DC04C82EC818E894D7F868CF81919191CC
:1008C000AC0170E060E0E9CF52FC02C0A3947ACFA3
:1008D000A394A39477CF852D867809F473CFF6CFB0
:1008E000B70180E290E00E94AC04A394A414C0F38A
:1008F000312C74CF342C3A18A41408F46FCFF8CFED
:10090000852D867809F47ACF8BE251FE80E257FC80
:100910008DE2B70190E070CFB70180E390E00E94D4
:10092000AC04BA946BCF8FEF9FEF97CFFC0105908B
:10093000615070400110D8F7809590958E0F9F1FE1
:100940000895FC016150704001900110D8F7809526
:1009500090958E0F9F1F08950F931F93CF93DF9352
:10096000182F092FEB018B8181FD09C01FEF0FEFBD
:10097000812F902FDF91CF911F910F91089582FFCA
:1009800014C02E813F818C819D81281739073CF44A
:10099000E881F981CF0101968883998310838E8144
:1009A0009F8101968E839F83E3CFE885F985812F10
:1009B0000995892BA1F3DACFFA01AA27283051F142
:1009C000203181F1E8946F936E7F6E5F7F4F8F4F80
:1009D0009F4FAF4FB1E03ED0B4E03CD0670F781FDF
:1009E000891F9A1FA11D680F791F8A1F911DA11DC4
:1009F0006A0F711D811D911DA11D20D009F46894FD
:100A00003F912AE0269F11243019305D3193DEF6A4
:100A1000CF010895462F4770405D4193B3E00FD05A
:100A2000C9F7F6CF462F4F70405D4A3318F0495D45
:100A300031FD4052419302D0A9F7EACFB4E0A69528
:100A40009795879577956795BA95C9F7009761054A
:100A5000710508959B01AC010A2E069457954795A0
:100A600037952795BA95C9F7620F731F841F951F95
:100A7000A01D08952F923F924F925F926F927F92A6
:100A80008F929F92AF92BF92CF92DF92EF92FF929E
:100A90000F931F93CF93DF93CDB7DEB7CA1BDB0B4A
:100AA000CDBFDEBF09942A88398848885F846E8468
:100AB0007D848C849B84AA84B984C884DF80EE8082
:100AC000FD800C811B81AA81B981CE0FD11DCDBFC4
:0A0AD000DEBFED010895F894FFCF9A
:100ADA0054797065204F4E2F4F464620746F20631D
:100AEA006F6E74726F6C20746865204C45442E0DCD
:100AFA000A00533236002A002B002D004500446EAE
:070B0A00650A0043256400A9
:040B110000140108C3
:00000001FF
